S01C0000452D70617065725F646973706C61795F45465233322E73333758
S113000000000420C1010000ED010000ED0100002A
S1130010ED010000ED010000ED010000ED01000024
S1130020ED010000ED010000ED010000ED01000014
S1130030ED010000ED010000ED010000ED01000004
S1130040ED010000ED010000ED010000ED010000F4
S1130050ED010000ED010000ED010000ED010000E4
S1130060ED010000ED010000ED010000613B000026
S11300709D350000ED010000ED010000ED010000E0
S1130080ED010000ED010000ED010000ED010000B4
S1130090ED010000ED010000ED010000ED010000A4
S11300A0ED010000ED010000ED010000ED01000094
S11300B0ED010000ED010000ED010000ED01000084
S11300C0ED010000ED010000ED010000ED01000074
S11300D0ED010000ED010000ED010000ED01000064
S11300E0ED010000ED010000ED010000ED01000054
S11300F0ED010000ED010000ED010000ED01000044
S1130100ED010000ED010000ED01000010B5054C0B
S1130110237833B9044B13B10448AFF300800123AF
S1130120237010BD880000200000000090D3000060
S113013008B5034B1BB103490348AFF3008008BD66
S1130140000000008C00002090D30000154B002B11
S113015008BF134B9D46A3F5803A00218B460F46FA
S11301601348144A121A03F026FF0F4B002B00D039
S113017098470E4B002B00D0984700200021040024
S11301800D000D48002802D00C48AFF3008003F0A6
S1130190E3FE2000290003F0A1F803F0C9FE00BF2C
S11301A0000008000000042000000000000000001F
S11301B088000020841400200000000000000000DB
S11301C0064880470649074A074B9A42BEBF51F882
S11301D0040B42F8040BF8E7FFF7B8FFB90200007C
S11301E09CD300000000002088000020FEE700BF30
S11301F080B582B000AF00F01BF878600A4BD3F8EA
S113020008311B0AC3F308033B603B6801337A6877
S1130210B2FBF3F37B60054A7B6813607B68184686
S11302200837BD4680BD00BF00400E4008000020D6
S113023080B483B000AF164BD3F8943003F00703B7
S1130240032B08D0042B02D0022B08D00BE0114B57
S11302501B687B600BE04FF400437B6007E00E4BB0
S11302601B687B6003E00D4B1B687B6000BF084B81
S1130270D3F800311B0A03F01F0301337A68B2FB81
S1130280F3F318460C37BD465DF8047B704700BF96
S113029000400E4004000020000000200C0000205C
S11302A080B400AF034B1B681846BD465DF8047B61
S11302B0704700BF0000002080B400AF074B084A1D
S11302C09A60064BD3F88830044A43F47003C2F8AA
S11302D0883000BFBD465DF8047B704700ED00E048
S11302E00000000080B400AF4FF400431846BD4640
S11302F05DF8047B704780B400AF4FF47A731846FE
S1130300BD465DF8047B704780B400AF034B1B68A7
S11303101846BD465DF8047B704700BF040000200A
S113032080B483B000AF03460A46FB801346BB800B
S1130330054AFB881380054ABB88138000BF0C372D
S1130340BD465DF8047B7047A4000020A600002091
S113035080B483B000AF0346FB80064AFB88138059
S1130360044B1A88044B1A8000BF0C37BD465DF855
S1130370047B7047160000201400002080B483B072
S113038000AF78607B68002B0DD0124B1B68002BEC
S113039016D1114BB3F900309BB206339BB21AB29B
S11303A00D4B1A800CE00B4B1B68002B08D00A4B3A
S11303B0B3F900309BB2063B9BB21AB2064B1A80CB
S11303C0044A7B68136000BF0C37BD465DF8047BAC
S11303D0704700BFDC000020A600002080B582B07A
S11303E000AF0346FB800B46BB8013467B80B7F906
S11303F00630B7F904107A88184600F06BFD00BF88
S11304000837BD4680BD90B589B000AF04460846A4
S113041011461A462346FB800346BB800B467B806D
S113042013463B80B7F90020B7F90430D31A1846B5
S113043003F07AFD0446B7F90220B7F90630D31A5F
S1130440184603F071FD03469C42CCBF01230023F0
S1130450DBB27B83B7F91A30002B0BD0FB883B83CC
S1130460BB88FB803B8BBB807B88FB823B887B808B
S1130470FB8A3B80B7F90620B7F902309A420BDDBC
S1130480FB88BB827B88FB80BB8A7B80BB887B82AA
S11304903B88BB807B8A3B807A88FB88D31A9BB2DB
S11304A03B82B7F90020B7F90430D31A184603F099
S11304B03BFD0346FB81B7F91030DA0F13445B10A0
S11304C0FB83B7F90420B7F900309A4202DA01231A
S11304D0BB8331E04FF6FF73BB832DE0B7F91A30CD
S11304E0002B08D03A8EB7F90610B7F90430184635
S11304F0FFF774FF07E03A8EB7F90410B7F9063036
S11305001846FFF76BFFFA8BFB89D31A9BB2FB8368
S1130510B7F91E30002B09DABA88BB8B13449BB29F
S1130520BB80FA8B3B8A13449BB2FB83B7F906303A
S11305309BB201339BB2FB80B7F90620B7F90230B6
S11305409A42CBDD00BF2437BD4690BD90B585B03F
S113055002AF0446084611461A462346FB8003466A
S1130560BB800B467B8013463B80BA887B88134450
S11305709BB2013B9BB21CB2B7F90620B7F9041039
S1130580B7F906003B8800932346FFF73CFF00BF02
S11305900C37BD4690BD90B583B000AF0446084605
S11305A011461A462346FB800346BB800B467B80DC
S11305B013463B803B88B7F90220B7F90410B7F91A
S11305C00600FFF7C3FF00BF0C37BD4690BD90B5D2
S11305D085B000AF0446084611461A462346FB8000
S11305E00346BB800B467B8013463B80FB88FB8124
S11305F00EE03B8CB7F90020B7F90410B7F90E00F0
S1130600FFF7C9FFB7F90E309BB201339BB2FB81F0
S1130610B7F90E20B7F90610B7F902300B449A4225
S1130620E7DB00BF1437BD4690BD90B585B002AF7F
S11306300446084611461A462346FB800346BB80FF
S11306400B467B8013463B80B7F90040B7F9022084
S1130650B7F90410B7F906003B8B00932346FFF764
S1130660B6FF00BF0C37BD4690BD80B400AF00BFDD
S1130670BD465DF8047B704780B400AF00BFBD4643
S11306805DF8047B7047000090B58DB002AF04465E
S1130690084611461A462346FB800346BB800B4698
S11306A0FB7013463B80AF4B1B68002B40F01A8154
S11306B0AD4BB3F90030B7F906209A4280F2D681E7
S11306C0AA4BB3F90030B7F904209A4280F2CE81E4
S11306D0B7F9061097F83C2013465B0013445B00FF
S11306E00B44013B002BC0F2C181B7F9042097F8F9
S11306F03C30DB001344013B002BC0F2B7819C4B20
S11307001B7883F00103DBB2002B05D0FB78AF2B01
S113071002D9FB780133FB70FFF7A7FF002387F8AA
S11307202730A9E0FA7813469B001A4497F927303A
S11307301344904AD35C87F82630002387F8253089
S11307408EE097F8263003F00103002B3CD097F895
S11307503C30012B12D197F927309AB2FB8813440D
S11307609BB218B297F925309AB2BB8813449BB256
S11307701BB23A881946FFF731FE65E097F9273036
S11307809AB297F83C309BB212FB03F39AB2FB88FF
S113079013449BB218B297F925309AB297F83C30BB
S11307A09BB212FB03F39AB2BB8813449BB219B2F7
S11307B097F83C301AB297F83C301CB23B8800934F
S11307C02346FFF732FF3FE03A8F3B889A423BD003
S11307D097F83C30012B12D197F927309AB2FB8855
S11307E013449BB218B297F925309AB2BB881344CC
S11307F09BB21BB23A8F1946FFF7F0FD24E097F93C
S113080027309AB297F83C309BB212FB03F39AB2AA
S1130810FB8813449BB218B297F925309AB297F823
S11308203C309BB212FB03F39AB2BB8813449BB2D5
S113083019B297F83C301AB297F83C301CB23B8F8F
S113084000932346FFF7F1FE97F92530DBB201331D
S1130850DBB287F8253097F826305B0887F8263016
S113086097F92530072B7FF76CAF97F92730DBB268
S11308700133DBB287F8273097F92730042B7FF751
S113088051AF3A8F3B889A4229D097F83C30012BDC
S11308900AD1FB8805339BB218B23B8FB7F9041019
S11308A00822FFF778FE1AE097F83C309BB21A460C
S11308B0920013449AB2FB8813449BB218B297F87F
S11308C03C301AB297F83C309BB2DB009BB21CB2AE
S11308D0B7F904103B8F00932346FFF7A6FEFFF7FA
S11308E0CBFEC4E01F4B1B6808331B78FA78D31A7D
S11308F0FB70FB78DA001B4B1B6804331B68134442
S11309007B61184B1B681B683B617B691B887B847C
S11309107B699B78FB737B69DB78BB737B690533ED
S11309201B787B737B6906331B783B730023FB774F
S11309300023BB770023BB8300237B8397F83C30E1
S1130940012B05D997F90D30BB8397F90C307B83C4
S1130950FFF78BFE002387F820307EE0002387F822
S1130960213070E0DC000020100000201200002084
S1130970A800002060530000BB7F5A1CBA7703F024
S11309800703002B07D17B8C5A1C7A841A463B69D7
S113099013441B78FB7797F91F30002B4BDA97F839
S11309A03C30012B1CD197F90D309AB2FB881344CB
S11309B09AB297F821309BB213449BB218B297F9BC
S11309C00C309AB2BB8813449AB297F820309BB289
S11309D013449BB21BB23A881946FFF7FFFC2AE086
S11309E0B7F91C2097F8213013449AB297F83C3099
S11309F09BB212FB03F39AB2FB8813449BB218B266
S1130A00B7F91A2097F8203013449AB297F83C307B
S1130A109BB212FB03F39AB2BB8813449BB219B284
S1130A2097F83C301AB297F83C301CB23B880093DC
S1130A302346FFF7FAFDFB7F5B00FB7797F8213035
S1130A40013387F8213097F82120FB7B9A4293D316
S1130A5097F82030013387F8203097F82020BB7BAB
S1130A609A42FFF47BAFFFF707FE00E000BF2C378C
S1130A70BD4690BD80B58CB000AFF8600846114605
S1130A801A4603467B810B463B811346FB80BB8F92
S1130A904FF6FF72934202D04FF6FF7300E000233B
S1130AA0BB83B7F8403003F00203002B01D0BB8BAB
S1130AB000E0BB8F7B83B7F8403003F00203002BC8
S1130AC001D0BB8F00E0BB8B3B83FB880733002B3B
S1130AD000DA0733DB10FB82002387F82F30B7F8E6
S1130AE0403003F48073002B79D00023BB8570E081
S1130AF000237B8562E07B8D03F00703002B05D088
S1130B0097F82F305B0087F82F3013E0B7F92C30BB
S1130B10B7F9162002FB03F2B7F92A30002B00DAEA
S1130B200733DB101BB213441A46FB6813441B78CB
S1130B3087F82F30B7F8403003F00203002B14BFBE
S1130B4001230023FB7497F82F3003F08003002B5C
S1130B5014BF01230023BB74FA7CBB7C9A4227D0C8
S1130B607A8D7B8913443B85BA8D3B891344FB847E
S1130B70B7F8403003F00403002B06D07A89FB88D1
S1130B8013449AB27B8DD31A3B85B7F8403003F0F7
S1130B900803002B06D03A893B8F13449AB2BB8DCD
S1130BA0D31AFB843B8DF98CBA8F184600F092F966
S1130BB0B7F92A309BB201339BB27B85B7F92A205F
S1130BC0FB889A4297DBB7F92C309BB201339BB276
S1130BD0BB85B7F92C203B8F9A4289DB6AE000235E
S1130BE0BB8462E000237B8454E07B8C03F0070326
S1130BF0002B05D097F82F305B0087F82F3013E0D7
S1130C00B7F92430B7F9162002FB03F2B7F9223002
S1130C10002B00DA0733DB101BB213441A46FB68BF
S1130C2013441B7887F82F3097F92F30002B01DA03
S1130C307B8B00E03B8BBB827A8C7B8913443B84A7
S1130C40BA8C3B891344FB83B7F8403003F00403A8
S1130C50002B06D07A89FB8813449AB27B8CD31A72
S1130C603B84B7F8403003F00803002B06D03A89E0
S1130C703B8F13449AB2BB8CD31AFB833B8CF98B06
S1130C80BA8A184600F026F9B7F922309BB201332C
S1130C909BB27B84B7F92220FB889A42A5DBB7F983
S1130CA024309BB201339BB2BB84B7F924203B8F21
S1130CB09A4297DB00BF3037BD4680BD80B485B013
S1130CC000AF786039607B6803F10473DA003B6835
S1130CD013449B00FB60FB681B6818461437BD4631
S1130CE05DF8047B704780B582B000AF034639607D
S1130CF0FB71FB79002B1CD0FB79012B19D0FB79FC
S1130D00022B16D0FB79032B13D0FB79042B10D0C4
S1130D10FB79052B0DD0FB79062B0AD0FB79072B29
S1130D2007D0FB79082B04D0FB79092B01D0FB7980
S1130D300A2BFA7913465B0013441B011C3303F19D
S1130D40804303F5204339681846FFF7B7FF03468D
S1130D5018460837BD4680BD80B483B000AF034653
S1130D600A46FB801346BB80BA88FB88934228BF9F
S1130D7013469BB218460C37BD465DF8047B70479A
S1130D8080B582B000AF78607B684FF47A7202FB62
S1130D9003F37B60786802F093FE00BF0837BD461A
S1130DA080BD80B500AF02E03220FFF7E9FF0A21E1
S1130DB00320FFF798FF0346012BF5D000BF80BD49
S1130DC080B483B000AF0346FB7100BF0A4B1B69BC
S1130DD003F04003002BF9D0074AFB79536300BFAB
S1130DE0054B1B6903F02003002BF9D000BF0C371F
S1130DF0BD465DF8047B70470008014080B500AF34
S1130E00002304220921032001F0F0FBC820FFF78E
S1130E10B7FF012304220921032001F0E7FBC820C6
S1130E20FFF7AEFF00BF80BD80B582B000AF0346C0
S1130E30FB71002304220821032001F0D7FBFB7976
S1130E40184600F004F800BF0837BD4680BD80B5E1
S1130E5082B000AF0346FB71002304220921002065
S1130E6001F0C4FBFB791846FFF7AAFF0123042213
S1130E700921002001F0BAFB00BF0837BD4680BD40
S1130E8080B582B000AF0346FB7101230422082120
S1130E90032001F0ABFBFB791846FFF7D8FF00BF36
S1130EA00837BD4680BD80B485B000AF7860396036
S1130EB03B681B88FB817B68B3F900203B681A8080
S1130EC07B68FA891A8000BF1437BD465DF8047B3D
S1130ED07047000080B584B000AF0346FB800B462A
S1130EE0BB8013467B80B7F90630002BC0F2D88054
S1130EF0B7F90630C72B00F3D380B7F90430002BC1
S1130F00C0F2CE80B7F90430C72B00F3C980674B19
S1130F101B68013B032B3ED801A252F823F000BF0B
S1130F20310F00004F0F0000650F0000830F000019
S1130F30B7F906301A46B7F9043019461046FFF7D8
S1130F40B2FFFB88C3F1C7039BB2FB8023E0FB889D
S1130F50C3F1C7039BB2FB80BB88C3F1C7039BB239
S1130F60BB8018E0B7F906301A46B7F904301946C1
S1130F701046FFF798FFBB88C3F1C7039BB2BB8041
S1130F8009E0FB88BB81BB88C3F1C7039BB2FB802C
S1130F90BB89BB8000BFB7F90630002B00DA0733EA
S1130FA0DB101BB29AB2B7F90430C82101FB03F37A
S1130FB0002B00DA0733DB109BB21344FB813C4B5C
S1130FC0B3F90030002B05DCFB8941F287329342F0
S1130FD02BD968E0364BB3F900309BB21A46D202E3
S1130FE0D21A9200D31ADB009AB2BB8813449BB284
S1130FF0BB80B7F90430002B54DBB7F90430272B3E
S113100050DCB7F90630002B00DA0733DB101BB2D3
S11310109AB2B7F90430C82101FB03F3002B00DABC
S11310200733DB109BB21344FB817B88002B1AD15E
S1131030FB89204AD35C5AB2B7F90630594203F00F
S1131040070301F0070158BF4B421BB2C3F107036A
S1131050012101FA03F35BB213435AB2FB89D1B203
S1131060144AD1541FE0FB89124AD35C5AB2B7F92F
S11310700630594203F0070301F0070158BF4B4201
S11310801BB2C3F10703012101FA03F35BB2DB4393
S11310905BB213405AB2FB89D1B2064AD15402E082
S11310A000BF00E000BF1037BD4680BDE400002053
S11310B072140020E800002080B584B000AF78608E
S11310C000237B607B68002B05D0314802F07CFF55
S11310D0304B01221A70012304220921032001F05C
S11310E085FA0023FB6002E0FB680133FB60FB68C8
S11310F0294A9342F8DD294802F066FFFFF751FEC2
S1131100274802F061FFFFF779FE0120FFF78CFE0C
S1131110C720FFF7B5FE0020FFF7B2FE0020FFF75F
S1131120AFFE0C20FFF780FED720FFF7A9FED620E4
S1131130FFF7A6FE9D20FFF7A3FE2C20FFF774FE09
S1131140A820FFF79DFE3A20FFF76EFE1A20FFF756
S113115097FE3B20FFF768FE0820FFF791FE112061
S1131160FFF762FE0320FFF78BFE4FF6FF7000F0DF
S11311701FF80C4802F028FF0B4B4FF6FF721A8041
S11311800A4B00221A7000BF1037BD4680BD00BF55
S1131190B4580000701400209F860100C05800005D
S11311A0CC580000D858000072140020711400209C
S11311B080B485B000AF0346FB80FB88002B01D1CF
S11311C0FF2300E000237B730023FB8106E0FB89FF
S11311D008497A7BCA54FB890133FB81FB8941F2BC
S11311E087329342F3D900BF1437BD465DF8047BC0
S11311F0704700BFE800002080B582B000AF244BE8
S1131200B3F90030B3F1FF3F3DD1224B00221A70F5
S1131210032000F035FC242000F08BFA0023FB802F
S113122029E00023BB8020E0FB881A469200134487
S11312301A4691001A460B4613449AB2BB881344CB
S11312407B807B8841F28732934203D87B88124AA1
S1131250D35C00E000237B707B78DB43DBB2184671
S113126000F08FFABB880133BB80BB88182BDBD915
S1131270FB880133FB80FB88C72BD2D900F02CFC00
S113128000F0C3FB00E000BF0837BD4680BD00BFCF
S11312907214002071140020E800002080B588B08A
S11312A004AFF860084611461A4603467B810B4694
S11312B03B811346FB8000233B843B8C03F00103FA
S11312C0002B03D03B8C43F006033B84F8883A8917
S11312D07989B7F920300293BB8B01933B8B009340
S11312E00346F868FFF7C6FB00BF1037BD4680BD54
S11312F080B58CB000AFF860B9601346FB80684BD2
S1131300B3F90030B3F1FF3F40F0C680FB8803F02F
S11313100103002B03D0FB8843F00403FB80032369
S113132087F82F30FB8803F00803002B08D0FB88D4
S113133003F00403002B03D0002387F82F3010E0C0
S1131340FB8803F00803002B03D0012387F82F3018
S113135007E0FB8803F00403002B02D0022387F884
S11313602F30FB8803F04003002B63D04D4B012248
S11313701A7097F82F30184600F098FB242000F0DC
S1131380D8F90023BB621EE0FF2387F82730BA6A2E
S1131390BB689A420FD2FA68BB6A13441B7887F879
S11313A02730FB8803F00203002B04D097F8273082
S11313B0DB4387F8273097F82730184600F0E1F927
S11313C0BB6A0133BB62BB6A41F287329342DBD909
S11313D000F094FB4FF49670FFF7D2FC242000F049
S11313E0A8F900233B6219E0FF23FB773A6ABB6844
S11313F09A420CD2FA683B6A13441B78FB77FB8849
S113140003F00203002B02D0FB7FDB43FB77FB7F5F
S1131410184600F0B6F93B6A01333B623B6A41F27D
S113142087329342E0D94FF49670FFF7A9FC00F09D
S1131430ECFA32E01B4B00221A7097F82F30184652
S113144000F01EFB242000F074F90023BB6119E0B6
S1131450FF23FB75BA69BB689A420CD2FA68BB6970
S113146013441B78FB75FB8803F00203002B02D0A6
S1131470FB7DDB43FB75FB7D184600F082F9BB69FD
S11314800133BB61BB6941F287329342E0D900F07A
S113149023FB00F0BAFA00E000BF3037BD4680BD40
S11314A07214002071140020B0B58CB002AF044651
S11314B0084611461A462346FB800346BB800B466A
S11314C07B8013463B800123FB77854BB3F90030C7
S11314D0B3F1FF3F40F0FB80FB7F002B05D03B883E
S11314E07A88B988F88800F091FBFB88C72B00F252
S11314F0F080BB88C72B00F2EE80FA887B88134407
S11315009BB21946C820FFF727FC0346013BBB8367
S1131510BA883B8813449BB21946C820FFF71CFCC9
S11315200346013B7B83FB88DB083B83BB8BDB08E7
S1131530FB82032000F0BAFA3B8BD8B2FB8AD9B203
S1131540BB88DCB2BB881B0A9BB2DDB27B8BDBB2EF
S11315507A8B120A92B2D2B2019200932B4622469F
S113156000F0F4F93B8BD8B2BB88D9B2BB881B0A14
S11315709BB2DBB21A4600F01AFAFFF712FC2420E1
S113158000F0D7F8BB88FB8431E03B8BBB8423E0BD
S1131590FB8C1A46920013441A4691001A460B46D5
S11315A013449AB2BB8C13443B823B8A41F2873288
S11315B0934203D83B8A4B4AD35C00E00023FB737D
S11315C0FB7BDB43DBB2184600F0DBF8B7F92430D1
S11315D09BB201339BB2BB84B7F92420FB8A9A42A5
S11315E0D6DDB7F926309BB201339BB2FB84B7F941
S11315F026207B8B9A42C8DD00F080FA4FF4967067
S1131600FFF7BEFB3B8BD8B2FB8AD9B2BB88DCB2F6
S1131610BB881B0A9BB2DDB27B8BDBB27A8B120ACE
S113162092B2D2B2019200932B46224600F08EF978
S11316303B8BD8B2BB88D9B2BB881B0A9BB2DBB246
S11316401A4600F0B4F9FFF7ACFB242000F071F85F
S1131650BB887B8431E03B8B3B8423E07B8C1A4644
S1131660920013441A4691001A460B4613449AB248
S11316703B8C1344BB82BB8A41F28732934203D82A
S1131680BB8A184AD35C00E00023FB74FB7CDB4379
S1131690DBB2184600F075F8B7F920309BB201337D
S11316A09BB23B84B7F92020FB8A9A42D6DDB7F976
S11316B022309BB201339BB27B84B7F922207B8B0F
S11316C09A42C8DD4FF49670FFF75AFB04E000BF5E
S11316D002E000BF00E000BF2837BD46B0BD00BF38
S11316E072140020E800002080B582B000AF0346E9
S11316F0FB71002304220821032000F077FF00235C
S113170004220921002000F071FFFB791846FFF73D
S113171057FB012304220921002000F067FF012365
S113172004220821032000F061FF00BF0837BD46F2
S113173080BD80B582B000AF0346FB71FFF731FB7B
S1131740FB791846FFF7D0FF00BF0837BD4680BDC0
S113175080B582B000AF0346FB7100230422092147
S1131760002000F043FFFB791846FFF729FB012313
S113177004220921002000F039FF00BF0837BD46CC
S113178080BD80B582B000AF0346FB71FB7918467B
S1131790FFF7DEFF00BF0837BD4680BD80B500AF50
S11317A0002304220921002000F020FF00BF80BD97
S11317B080B500AF012304220921002000F016FFA8
S11317C000BF80BD80B584B000AF78600B46FB706D
S11317D0FFF7E7FAFFF7E2FF7B685A1C7A601B7891
S11317E01846FFF7A6FF0023FB7309E07B685A1C29
S11317F07A601B781846FFF7C4FFFB7B0133FB7349
S1131800FA7BFB78013B9A42F0DBFFF7D1FF00BF84
S11318101037BD4680BD000080B586B002AF0346D8
S1131820FB71C723FB81C723BB81FB799BB20321D7
S11318301846FFF791FA0346FB711120FFF779FF71
S1131840FB791846FFF79DFFFB79032B79D801A29A
S113185052F823F065180000A5180000DF180000F6
S113186015190000FB89DB089BB2D8B2BB89DAB238
S1131870BB891B0A9BB2D9B20023019300230093B6
S11318800B46002100F062F8FB89DB089BB2D8B25A
S1131890BB89D9B2BB891B0A9BB2DBB21A4600F0E2
S11318A086F84EE0FB89DB089BB2D9B2BB89DAB279
S11318B0BB891B0A9BB2D8B2002301930023009377
S11318C00346002000F042F8BB89D9B2BB891B0A49
S11318D09BB2DBB21A46002000F069F831E0FB89C4
S11318E0DB089BB2D8B2BB89DBB2BA89120A92B2C6
S11318F0D2B20192009300230022002100F026F8C6
S1131900FB89DB089BB2DBB200220021184600F001
S11319104EF816E0FB89DB089BB2D9B2BB89DBB277
S1131920BA89120A92B2D2B2019200930023002221
S1131930002000F00BF800220021002000F037F80E
S113194000BF00BF1037BD4680BD00BF90B583B057
S113195000AF0446084611461A462346FB71034667
S1131960BB710B467B7113463B714420FFF7E1FECC
S1131970FB791846FFF705FFBB791846FFF701FF0F
S11319804520FFF7D6FE7B791846FFF7FAFE3B7930
S11319901846FFF7F6FE3B7E1846FFF7F2FE3B7F44
S11319A01846FFF7EEFE00BF0C37BD4690BD80B56C
S11319B082B000AF0346FB710B46BB7113467B71CB
S11319C04E20FFF7B6FEFB791846FFF7DAFE4F20EC
S11319D0FFF7AFFEBB791846FFF7D3FE7B791846B5
S11319E0FFF7CFFE00BF0837BD4680BD80B500AF0E
S11319F02220FFF79EFEC020FFF7C3FE2020FFF742
S1131A0098FEFFF7CEF900BF80BD80B500AF22205D
S1131A10FFF78FFEC320FFF7B4FE2020FFF789FEF7
S1131A20FFF7BFF900BF80BD80B582B000AF0346A9
S1131A30FB7104210D48FFF7C5FE04210C48FFF794
S1131A40C1FE02210B48FFF7BDFE02210A48FFF741
S1131A50B9FE02210948FFF7B5FEFB791846FFF7E6
S1131A60DBFE00BF0837BD4680BD00BF60580000E4
S1131A7064580000685800006C580000705800005A
S1131A8080B582B000AF0346FB71FB791846FFF7BF
S1131A90CBFF1F210448FFF795FEFFF7A7FF00BF08
S1131AA00837BD4680BD00BF7458000080B582B0C1
S1131AB000AF0346FB71FB791846FFF7B5FF1F2102
S1131AC00448FFF77FFEFFF791FF00BF0837BD46CC
S1131AD080BD00BF9458000080B500AF2220FFF7FE
S1131AE028FEC420FFF74DFE2020FFF722FEFFF75B
S1131AF058F9FF20FFF71DFE00BF80BD80B500AF81
S1131B002220FFF716FE0420FFF73BFE2020FFF7FC
S1131B1010FEFFF746F9FF20FFF70BFE00BF80BD64
S1131B2080B584B000AF7860354BB3F90030B3F1C1
S1131B30FF3F61D1334B00221A700320FFF7A0FF4F
S1131B402420FFF7F6FD2E4B00221A8046E04FF6C4
S1131B50FF70FFF72DFB7B6898470023FB8130E083
S1131B600023BB8123E0FB891A46920013441A46E2
S1131B7091001A460B4613449AB2BB8913447B81E5
S1131B807B8941F28732934203D87B891E4AD35C16
S1131B9000E000237B727B7ADB43DBB21846FFF75D
S1131BA0F0FDB7F90C309BB201339BB2BB81B7F99E
S1131BB00C30182BD7DDB7F90E309BB201339BB232
S1131BC0FB81B7F90E30272BCADD0D4BB3F900307A
S1131BD09BB201339BB21AB2094B1A80084BB3F97A
S1131BE00030042BB3DD064B4FF6FF721A80FFF76B
S1131BF073FFFFF70AFF00E000BF1037BD4680BD4A
S1131C007214002071140020E800002090B583B005
S1131C1000AF0446084611461A462346FB80034695
S1131C20BB800B467B8013463B80264B1B68022BF4
S1131C301BD0032B2AD0012B00D03EE0FB881A4690
S1131C40BB8819461046FFF72EF97B881A463B8855
S1131C5019461046FFF727F9FB885B429AB27B8846
S1131C60D31A9BB2C733FB8027E0FB885B429AB24E
S1131C707B88D31A9BB2C733FB80BB885B429AB282
S1131C803B88D31A9BB2C733BB8016E0FB881A4645
S1131C90BB8819461046FFF706F97B881A463B882D
S1131CA019461046FFF7FFF8BB885B429AB23B889F
S1131CB0D31A9BB2C733BB8000BF00BF0C37BD46ED
S1131CC090BD00BFE400002080B584B000AF0123C4
S1131CD0BB71274BB3F90030B3F1FF3F43D1BB795C
S1131CE01846FFF7CDFE2420FFF723FD0023FB60F9
S1131CF031E00023BB6028E0FF23FB71BB68002BAD
S1131D0004D1FB68072B01D80023FB71BB68162B99
S1131D1004D9FB680F2B01D80023FB71BB68152B7A
S1131D2004D9FB68AF2B01D90023FB71BB68032BDB
S1131D3004D8FB68A72B01D90023FB71FB79184653
S1131D40FFF71FFDBB680133BB60BB68182BD3D9F9
S1131D50FB680133FB60FB68C72BCAD9FFF7BCFEE5
S1131D60FFF753FE00E000BF1037BD4680BD00BF43
S1131D707214002080B487B000AFF860B9607A6054
S1131D80FB6803F10473DA00BB6813449B007B61B6
S1131D907B697A681A6000BF1C37BD465DF8047B16
S1131DA0704780B483B000AF786001227B6802FA88
S1131DB003F318460C37BD465DF8047B70470000FA
S1131DC080B483B000AF054B1B687B607B6818460A
S1131DD00C37BD465DF8047B704700BF1800002037
S1131DE080B582B000AFFEF723FA7860064BD3F8D3
S1131DF000311B0A03F01F0301337A6802FB03F36B
S1131E0018460837BD4680BD00400E4080B582B0FC
S1131E1000AF0D4800F050FA0346FB70FB78072B27
S1131E2005D0092B07D1FEF703FA786006E0FFF727
S1131E30C7FF786002E000237B6000BF7B68184620
S1131E400837BD4680BD00BF06000E0080B584B0D3
S1131E5000AF78607B68002B1CD11B4800F02CFA83
S1131E600346FB7200BFFB7A013B072B23D801A278
S1131E7052F823F0991E0000B71E0000B71E0000A0
S1131E80A71E0000B71E0000B71E00009F1E000022
S1131E90AF1E0000002312E00023FB600EE0FFF7FA
S1131EA08FFFF8600AE0FEF7FBF9F86006E0FFF741
S1131EB097FFF86002E00023FB6000BFFB68184650
S1131EC01037BD4680BD00BFB800300090B585B066
S1131ED000AF78600023BB607B68354A934206D02C
S1131EE0344A934203D0344A934200D000E000BF06
S1131EF0786800F0E1F90346FB607B682C4A934262
S1131F000DD02C4A934211D02B4A934200D014E0B6
S1131F102A4BD3F8803003F00703FB600DE0274B16
S1131F20D3F8843003F00703FB6006E0234BD3F8B7
S1131F30883003F00703FB6000BFFB68042B2ED836
S1131F4001A252F823F000BF991F00005D1F00009A
S1131F50651F0000751F00006D1F0000FEF7C2F929
S1131F60B8601FE0FEF7D0F9B8601BE0FEF7C3F9D4
S1131F70B86017E0FEF73CF90446104BD3F8003183
S1131F801B0E03F0010301331846FFF70AFF034653
S1131F90B4FBF3F3BB6005E00023BB6002E0002365
S1131FA0BB6000BFBB6818461437BD4690BD00BF78
S1131FB003001E000500220002001C0000400E4029
S1131FC080B483B000AF78600A4BD3F8443103F097
S1131FD00103002B08D100BF064BD3F840217B68D6
S1131FE01340002BF8D100E000BF0C37BD465DF86C
S1131FF0047B704700400E4080B586B000AF786027
S11320000B46FB7000233B617B681B0A03F00F0344
S1132010013B092B44D801A252F823F045200000CB
S113202051200000A1200000A12000004B2000004E
S11320305720000061200000A12000006B20000058
S113204077200000184B7B6118E0184B7B6115E08A
S1132050174B7B6112E0174B7B6101233B610DE061
S1132060154B7B6110233B6108E0144B7B614FF4FB
S113207080333B6102E0124B7B6100BF7B681B0B2A
S113208003F01F03FB603B69002B02D03869FFF7A4
S113209097FFFB781A46F9687869FFF76BFE00E052
S11320A000BF1837BD4680BD00400E40B0400E4012
S11320B0C0400E40E0400E40E8400E40F0400E406C
S11320C050410E4080B584B000AF78607B6803F463
S11320D07813B3F5A01F7AD0B3F5A01F1AD8B3F5BF
S11320E0202F4DD0B3F5202F08D8B3F5003F4BD0A7
S11320F0B3F5802F35D0002B2FD0CCE0B3F5602F73
S113210000F0BC80B3F5801F00F0BC80B3F5402F15
S113211049D0C0E0B3F5F01F7FD0B3F5F01F09D864
S1132120B3F5C01F7ED0B3F5E01F4BD0B3F5B01F9D
S113213052D0B0E0B3F5301F60D0B3F5301F04D8EF
S1132140B3F5081F00F09580A5E0B3F5381F7CD0E7
S1132150B3F5401F00F09A809DE0FEF769F8F8603F
S11321609CE0FEF765F8F8604F4BD3F80C311B0A7E
S1132170C3F308030133FA68B2FBF3F3FB608DE0A9
S1132180FEF756F8F86089E0FEF752F8F860464B1F
S1132190D3F808311B0AC3F308030133FA68B2FB0E
S11321A0F3F3FB607AE0FEF743F8F8603E4BD3F8B4
S11321B014311B0A03F01F030133FA68B2FBF3F373
S11321C0FB606BE03948FFF781FEF86066E0384851
S11321D0FFF77CFEF86061E03448FFF777FEF860B3
S11321E0314BD3F8203103F00F031846FFF7D9FD24
S11321F00246FB68B3FBF2F3FB604FE02B48FFF7AA
S113220065FEF860284BD3F820311B0903F0030363
S1132210FA6822FA03F3FB6040E02648FFF756FE13
S1132220F8603BE02348FFF751FEF8601E4BD3F8FB
S113223028311B0903F003031846FFF7B2FD0246D9
S1132240FB68B3FBF2F3FB6028E01A48FFF73EFE9D
S1132250F860154BD3F828311B0A03F00303043349
S11322601846FFF79EFD0246FB68B3FBF2F3FB60E2
S113227014E00F48FFF72AFEF8600FE0FFF7C6FDF1
S1132280F8600BE0FFF79CFDF86007E00020FFF723
S1132290DDFDF86002E00023FB6000BFFB68184628
S11322A01037BD4680BD00BF00400E4002001C0038
S11322B00500220003001E0080B485B000AF7860E2
S11322C00123FB737B6803F00F03BB60BB68013B16
S11322D0072B00F2C48001A252F823F0FD22000073
S11322E053230000832300005F240000C92300005F
S11322F0F92300005F2400001D2400005D4BD3F887
S1132300943003F00703023B052B1ED801A252F8B8
S113231023F000BF39230000332300002D230000E5
S11323203F2300004B230000452300000223FB73DE
S11323300EE00323FB730BE00423FB7308E00B2381
S1132340FB7305E00C23FB7302E00523FB7300BF62
S113235088E0484BD3F8803003F00703022B06D003
S1132360042B07D0012B08D10323FB7308E00223BD
S1132370FB7305E00A23FB7302E00123FB7300BF38
S113238070E03C4BD3F8843003F00703013B032B8C
S113239016D801A252F823F0A9230000AF230000AD
S11323A0BB230000B52300000323FB730BE00223CF
S11323B0FB7308E00A23FB7305E00623FB7302E0CA
S11323C00123FB7300BF4DE02A4BD3F8883003F0A0
S11323D00703022B06D0042B07D0012B08D10323BB
S11323E0FB7308E00223FB7305E00A23FB7302E09E
S11323F00123FB7300BF35E01E4B1B6F03F0010389
S1132400002B04D0012B05D10923FB7305E007231E
S1132410FB7302E00123FB7300BF23E0154BD3F8E9
S11324205C3103F03003102B0CD0102B02D8002B9E
S113243005D010E0202B08D0302B09D00BE001236D
S1132440FB730BE00723FB7308E00423FB7305E035
S11324500823FB7302E00123FB7300BF02E00023A7
S1132460FB7300BFFB7B18461437BD465DF8047B45
S1132470704700BF00400E4080B483B000AFEFF35C
S113248010833B603B687B6072B67B6818460C37F0
S1132490BD465DF8047B704780B483B000AF7860BC
S11324A07B68002B00D162B600BF0C37BD465DF8D7
S11324B0047B704780B485B000AF786039607B6876
S11324C003F1C063FB60FB683A681A6000BF14370D
S11324D0BD465DF8047B704780B485B000AF78607A
S11324E039607B6803F18063FB60FB683A681A60BB
S11324F000BF1437BD465DF8047B704780B582B0D9
S113250000AF03463960FB71FB79002B1CD0FB79CB
S1132510012B19D0FB79022B16D0FB79032B13D096
S1132520FB79042B10D0FB79052B0DD0FB79062BFE
S11325300AD0FB79072B07D0FB79082B04D0FB7951
S1132540092B01D0FB790A2BFA7913465B0013445B
S11325501B010C3303F1804303F5204301213A6846
S113256001FA02F211461846FFF7B6FF00BF08371A
S1132570BD4680BD80B582B000AF03463960FB71B3
S1132580FB79002B1CD0FB79012B19D0FB79022B92
S113259016D0FB79032B13D0FB79042B10D0FB79D5
S11325A0052B0DD0FB79062B0AD0FB79072B07D01E
S11325B0FB79082B04D0FB79092B01D0FB790A2B7A
S11325C0FA7913465B0013441B010C3303F1804377
S11325D003F5204301213A6801FA02F21146184634
S11325E0FFF768FF00BF0837BD4680BD80B584B0E3
S11325F000AFB9607B600346FB731346BB73FB7B80
S1132600002B1CD0FB7B012B19D0FB7B022B16D09B
S1132610FB7B032B13D0FB7B042B10D0FB7B052B04
S11326200DD0FB7B062B0AD0FB7B072B07D0FB7B53
S1132630082B04D0FB7B092B01D0FB7B0A2BBB7B33
S1132640002B0DD07B68002B05D0FB7BB9681846A6
S1132650FFF790FF04E0FB7BB9681846FFF74EFFD5
S1132660BB68072B20D82E49FA7B13465B00134422
S11326701B010B4404331A68BB689B000F2101FA49
S113268003F3DB431340B97BBA68920001FA02F208
S113269011462348FA7B194313465B0013441B017C
S11326A003440433196025E01D49FA7B13465B009B
S11326B013441B010B4408331A68BB6803F18043BD
S11326C0083B9B000F2101FA03F3DB4302EA0301F9
S11326D0BA7BBB6803F18043083B9B0002FA03F317
S11326E00F48FA7B194313465B0013441B01034450
S11326F008331960BB7B002B0DD17B68002B05D000
S1132700FB7BB9681846FFF735FF04E0FB7BB9682B
S11327101846FFF7F3FE00BF1037BD4680BD00BF6B
S113272000A0004080B483B000AF78607B680D4A9D
S113273093420BD07B680C4A934207D07B680B4AC8
S1132740934203D07B680A4A934201D1012300E0FB
S1132750002303F00103DBB218460C37BD465DF8D5
S1132760047B7047008001400084014000A00140C8
S113277000A4014080B582B000AF78603960786809
S1132780FFF7D0FF3B681B7883F00103DBB2002B1B
S113279002D07B6802225A607B6800225A623B683E
S11327A09B781A063B68DB781B041A433B689B79C9
S11327B09B021A433B68DB791B0213433A68127A83
S11327C013433A685278002A01D0402200E00022E4
S11327D013433A68527A002A01D0802200E0002292
S11327E013433A68927A002A01D0202200E00022A2
S11327F013433A68D27A002A01D0102200E0002262
S113280013433A681279002A02D04FF4005200E0D0
S1132810002213433A685279002A02D04FF08052C2
S113282000E0002213433A68127B002A01D00822F8
S113283000E000221A437B681A603B681B78002B77
S113284002D07B6801225A6000BF0837BD4680BDB4
S113285080B584B000AFF860B9607A60F868FFF7BB
S113286061FF7B681B789A067B685B781B061A43BA
S11328707B689B781B041A437B68DB781B031A4331
S11328807B681B799B021A437B685B791B021343A9
S11328907A68927913437A68D279002A02D04FF089
S11328A0804200E0002213437A68127A002A02D0A0
S11328B04FF0005200E0002213437A68527A002A53
S11328C001D0102200E0002213437A68927A002A91
S11328D001D0042200E000221A43F968BB680633E1
S11328E01B010B441A6000BF1037BD4680BD0000B9
S11328F080B586B000AFF860B9607A60FB70BB68E1
S1132900002B03D12448FFF7DDFBB860FB78202BB4
S11329100CD0202B02DC002B05D03AE0402B08D051
S1132920602B09D035E010237B6108E008237B612C
S113293005E006237B6102E004237B6100BFBB68E2
S11329405A017B69796801FB03F35B0813443B611B
S11329507B697A6802FB03F33A69B2FBF3F33B61E8
S11329603B69203B3B613B69DB003B613A690B4BB4
S113297013403B61FB681B6823F06002FB681A602C
S1132980FB681A68FB781A43FB681A60FB683A69AB
S11329905A611837BD4680BD40410500F8FF7F00ED
S11329A080B586B000AFF860B9607A60BB68002B70
S11329B003D10A48FFF786FBB860BB685A1E7B68E0
S11329C05B00B2FBF3F37B617B691B027B61FB68F9
S11329D07A695A6100BF1837BD4680BD4041050081
S11329E080B485B000AF78600B46FB707B68114AF9
S11329F093420AD07B68104A934206D07B680F4A00
S1132A00934202D07B680E4A934200BFFB78DB43BB
S1132A10FB60FB6803F00503FB60FB685A007B68FE
S1132A20DA60FA787B68DA6000BF1437BD465DF877
S1132A30047B70470000014000040140000801408D
S1132A40000C014080B582B000AF786039607B68CB
S1132A50344A93420AD07B68334A934206D07B6857
S1132A60324A934202D07B68314A934200BF78686D
S1132A7000F0E2F83B689B7C002B05D07B681B6868
S1132A8043F080427B681A603B68DB7C002B07D0F4
S1132A903B681B7D63F07F03DBB21A467B689A6553
S1132AA03B685B7B1A463B681B8A13433A68D289AE
S1132AB01A437B685A603B6859683B689A683B686C
S1132AC01B7B7868FFF714FF3B685B7D002B05D008
S1132AD07B681B6843F480327B681A603B689B7D8B
S1132AE01B0703F0E0423B68DB7D1B0503F4E003B6
S1132AF01A437B681A667B685B6F23F030027B683D
S1132B005A677B685B6F3A68127E1A437B685A6720
S1132B103B681B781A467B68DA6000BF0837BD46FD
S1132B2080BD00BF000001400004014000080140D6
S1132B30000C014080B582B000AF786039607B68DA
S1132B40394A93420AD07B68384A934206D07B685C
S1132B50374A934202D07B68364A934200BF786872
S1132B6000F06AF87B681A683B681B8A43F001032B
S1132B709BB219463B689B7B002B02D04FF48063C9
S1132B8000E000230B431A437B681A607B681B68D0
S1132B903A68127D002A02D04FF0005200E0002271
S1132BA01A437B681A603B689B7C002B07D03B6808
S1132BB0DB7C63F07F03DBB21A467B689A653B6873
S1132BC01B7B43F480527B685A603B6859683B68BE
S1132BD09B681A467868FFF7E3FE3B685B7B002B33
S1132BE002D07B681022DA603B685B7D002B05D045
S1132BF07B681B6843F480327B681A603B689B7D6A
S1132C001B0703F0E0423B68DB7D1B0503F4E00394
S1132C101A437B681A663B681B781A467B68DA603D
S1132C2000BF0837BD4680BD0000014000040140DC
S1132C3000080140000C014080B483B000AF78600C
S1132C407B682B4A93420AD07B682A4A934206D077
S1132C507B68294A934202D07B68284A934200BF8A
S1132C607B6840F6AA62DA607B6800221A607B689F
S1132C7041F205025A607B6800229A607B68002258
S1132C805A617B680022DA647B681D4A9A647B6817
S1132C9000225A677B6800229A677B680022DA6701
S1132CA07B68134A93420BD07B68124A934207D045
S1132CB07B68114A934203D07B68104A934202D145
S1132CC07B6800221A657B6800229A657B68094A42
S1132CD0934203D07B68094A934202D17B68002265
S1132CE0DA6500BF0C37BD465DF8047B704700BF52
S1132CF0000001400004014000080140000C0140B4
S1132D00F9FF010080B483B000AF786000BF7B6836
S1132D101B6903F08003002BF9D07B68DB69DBB20D
S1132D2018460C37BD465DF8047B704780B483B009
S1132D3000AF78600B46FB7000BF7B681B6903F033
S1132D404003002BF9D0FA787B685A6300BF0C3734
S1132D50BD465DF8047B704780B400AF044BDB6C68
S1132D601B0EDBB21846BD465DF8047B704700BFFE
S1132D70B081E00F80B582B000AF194B01225A64D4
S1132D80FFF7EAFF0346FB71FB79002B0CD1154BCF
S1132D904AF6E8521A60144B1B68134A43F00403C2
S1132DA01360104B00221A60FB79012B05D80F4BDE
S1132DB01B680E4A43F4005313600D4B1B6A23F443
S1132DC044130B4A43F488131362054B1B68044AEB
S1132DD043F48073136000BF0837BD4680BD00BF55
S1132DE000000E4090310E4098310E4064310E4088
S1132DF000400E4080B483B000AF786039607B68D7
S1132E003A689A6400BF0C37BD465DF8047B70478E
S1132E1080B582B000AF78607B684FF47A7202FBB1
S1132E2003F37B60786800F04BFE00BF0837BD46B3
S1132E3080BD0000B0B586B000AF01213048FFF777
S1132E40DBF801212F48FFF7D7F8002304220821DB
S1132E500020FFF7CBFB0123042209210020FFF708
S1132E60C5FB0123042206210020FFF7BFFB012339
S1132E70012207210020FFF7B9FB002301220A21C8
S1132E800320FFF7B3FB0123042208210320FFF7EB
S1132E90ADFB0123042209210320FFF7A7FB1A4BF2
S1132EA03C461D460FCD0FC495E8030084E803009B
S1132EB001237B73154BBB6001237B7500233B828D
S1132EC00123BB7300233B703B4619461048FFF7B0
S1132ED031FE0F4B4FF001329A670D4B0F225A67A8
S1132EE002210B48FFF786FF04210948FFF782FF00
S1132EF005210748FFF774FD00BF1837BD46B0BD74
S1132F0000350A0000620400F4D1000080841E0031
S1132F100008014080B586B004AF4423BB8005237C
S1132F20FB804FF6FF70FEF743F9B988FA88002357
S1132F300193B423009340232C4800F06BF8FEF770
S1132F405BF96420FDF71CFF06237B800E233B8086
S1132F501BE04FF6FF70FEF72BF9B988FA887B88DF
S1132F60029300230193B423009340231F4800F0ED
S1132F7051F8C823C82200210020FEF795FA6420E6
S1132F80FDF7FEFEFB880533FB80FB88B933C82BB5
S1132F90DFDD6420FDF7F4FE1BE04FF6FF70FEF763
S1132FA007F9B988FA883B88029300230193B42374
S1132FB0009340230D4800F02DF8C823C8220021B7
S1132FC00020FEF771FA6420FDF7DAFEFB88053B6A
S1132FD0FB80FB88042BE0D8FEF70EF96420FDF794
S1132FE0CFFE00BF0837BD4680BD00BFF47F0000A0
S1132FF080B584B000AF786039600123FB81B7F9F4
S11330000E301A4639687868FEF772F900BF103737
S1133010BD4680BD80B58AB004AFF860084611464D
S11330201A4603467B810B463B811346FB800123F2
S1133030FB82F8883A897989B7F916300293BB8CF8
S113304001933B8C00930346F868FEF727F900BF11
S11330501837BD4680BD000080B582B002AF41F292
S113306088311648FFF7C4FF4FF47A70FFF7D0FE9B
S113307041F288311248FFF7BBFF4FF47A70FFF733
S1133080C7FE4FF6FF70FEF793F800230193C823A1
S11330900093C823002200210848FFF7BBFFFEF776
S11330A0ABF84FF47A70FFF7B3FEFFF733FF4FF43A
S11330B07A70FFF7ADFE00BFBD4680BDE458000046
S11330C06C6C00000CB4B0B588B002AF03460A467D
S11330D0FB801346BB806B461D462B4B1B68C822E6
S11330E092FBF3F0431E3B61034619464FF0000286
S11330F04FF000034FF00004D40044EA5174CB00B5
S1133100034619464FF000024FF000034FF000044D
S1133110D40044EA5174CB0003460733DB08DB00D8
S1133120ADEB030D02AB0033FB6007F12C03BB6076
S1133130FC680146BB68BA6A204601F037F8FB68B0
S11331407B6115E0B7F90600B7F904107B695A1CD6
S11331507A611A78012301934FF6FF7300930023D9
S1133160FDF792FA084B1B689AB2FB881344FB8064
S11331707B691B78002BE5D1AD4600BF1837BD46EF
S1133180BDE8B04002B070477414002080B500AFB1
S1133190404B414A1A60414B414A1A604FF6FF7056
S11331A0FEF706F80020FDF7D3F83C4B1B681846E1
S11331B0FDF7E4F800210020FDF7B2F8394B0022B6
S11331C01A60394B0D221A60324B1B681A461021C3
S11331D00020FFF777FF354A2D210020FFF772FF0B
S11331E02C4B334A1A602D4B324A1A600020FDF7EB
S11331F0AFF82A4B1B681846FDF7C0F82A4B0E227D
S11332001A602D4A49210020FFF75CFF214B2B4A0D
S11332101A60224B2A4A1A600020FDF799F81F4BC6
S11332201B681846FDF7AAF81F4B0F221A60254A9F
S113323069210020FFF746FF164B234A1A60174BFB
S1133240224A1A600020FDF783F8144B1B681846C5
S1133250FDF794F8144B0F221A601A4A87210020B4
S1133260FFF730FF0B4B1A4A1A600C4B194A1A60CD
S11332700020FDF76DF8094B1B681846FDF77EF832
S1133280094B1E221A60144AB9210020FFF71AFFC5
S113329000BF80BD7C1400200CD2000078140020F4
S11332A0408E0000E4000020741400201CD20000B2
S11332B030D200000898000044D2000050D2000030
S11332C0B4C7000060D2000070D20000E8D1000052
S11332D080D20000FCBC000098D2000080B500AF92
S11332E0FFF748FD01211848FEF786FE00F0A0F91B
S11332F0012000F087F9FFF79DFD00F04BFB01234F
S1133300042205210020FFF771F9104800F05CFE4B
S11333104FF4E130FDF7D0FE0D4B01221A60FFF7A8
S11333209BFE4FF47A70FFF773FDFEF7CDFC4FF46C
S1133330FA70FFF76DFD0748FEF7F2FB41F28830A3
S1133340FFF766FDE8E700BF00350A00A0D20000E1
S1133350E40000208D31000080B483B000AF7860B9
S1133360002318460C37BD465DF8047B704780B4D3
S113337083B000AF7860FEE780B483B000AF7860BC
S113338039603B684FF400525A60002318460C37EA
S1133390BD465DF8047B704780B483B000AF7860AD
S11333A0012318460C37BD465DF8047B704780B492
S11333B085B000AFF860B9607A600023184614370E
S11333C0BD465DF8047B704780B586B000AFF860F9
S11333D0B9607A6000237B610FE000F091F93861F5
S11333E03B69B3F1FF3F0ED0BB685A1CBA603A691F
S11333F0D2B21A707B6901337B617B685A1E7A6092
S1133400002BEAD100E000BF7B69002B02DC4FF007
S1133410FF3300E07B6918461837BD4680BD0000C5
S113342080B485B000AF78600B4B1B68002B02D1D1
S1133430094B0A4A1A60084B1B68FB60064B1A6862
S11334407B681344044A1360FB6818461437BD466E
S11334505DF8047B704700BFAC0000208814002096
S113346080B586B000AFF860B9607A6000237B61F4
S113347009E0BB685A1CBA601B78184600F080F952
S11334807B6901337B617A697B689A42F1DB7B68F3
S113349018461837BD4680BD80B483B000AF0346DC
S11334A0FB7197F90730002B0BDBFB7903F01F024C
S11334B0074997F907305B09012000FA02F241F845
S11334C0232000BF0C37BD465DF8047B704700BF66
S11334D000E100E080B483B000AF0346FB7197F9CC
S11334E00730002B0CDBFB7903F01F02074997F927
S11334F007305B09012000FA02F2603341F823200F
S113350000BF0C37BD465DF8047B704700E100E066
S113351080B483B000AF786039607B683A689A649D
S113352000BF0C37BD465DF8047B704780B483B0A0
S113353000AF786039607B68DA6C3B68DB431A4023
S11335407B68DA6400BF0C37BD465DF8047B7047C6
S113355080B483B000AF786039607B68DA6C3B6814
S11335601A437B68DA6400BF0C37BD465DF8047B00
S11335707047000080B500AF04210248FFF7D6FF72
S113358000BF80BD0000014080B500AF04210248A7
S1133590FFF7DEFF00BF80BD0000014098B500AF1B
S11335A0144B1B6903F08003002B20D0124B1B68C3
S11335B0072B1ADC114B1C680E48FFF7A3FB0346CC
S11335C01A460F4B1A550D4B1B6801330B4A1360F7
S11335D0094B1B680133084A1360084B1B68082B0E
S11335E005D1064B00221A6001E0FFF7C3FF00BFBC
S11335F098BD00BF00000140B8000020B4000020C6
S1133600BC00002080B483B000AF78607B68002BDE
S113361003D0064B01221A7002E0044B00221A70F8
S113362000BF0C37BD465DF8047B7047C400002022
S1133630B0B588B000AF01212A48FEF7DDFC0121B6
S11336402948FEF7D9FC0123042200210020FEF7BB
S1133650CDFF0023012201210020FEF7C7FF234BE9
S1133660FB61234B3C461D460FCD0FC495E8070074
S113367084E8070001211F48FEF7BEFC00233B70CD
S11336803B461946F869FFF7DDF9FB6903225A67DF
S1133690FB699B6F23F4F85323F01F03FA699367C4
S11336A004211248FFF734FF0C20FFF713FF042115
S11336B00E48FFF74DFF0C20FFF7EEFE0521F869D9
S11336C0FFF78EF90C4B1B68986800230222002137
S11336D000F092FC094B01221A7000BF2037BD464E
S11336E0B0BD00BF4041050000350A0000000140A4
S11336F0DCD20000004204001C000020C5000020B1
S113370080B582B000AF4FF0FF337B60184B1B785D
S113371083F00103DBB2002B01D0FFF789FFFEF732
S1133720ABFE3860134B1B68002B18DD124B1B6873
S1133730124AD35CDBB27B600F4B1B6801330E4A29
S113374013600D4B1B68082B02D10B4B00221A602F
S1133750084B1B68013B074A1360FFF715FF3868E5
S1133760FEF79AFE7B6818460837BD4680BD00BF49
S1133770C5000020B8000020B0000020BC000020DC
S113378080B582B000AF0346FB71144B1B7883F005
S11337900103DBB2002B01D0FFF74AFF104B1B786B
S11337A0002B06D0FB790A2B03D10D210D48FFF71E
S11337B0BDFAFB7919460B48FFF7B8FA084B1B789A
S11337C0002B06D0FB790D2B03D10A210548FFF706
S11337D0ADFAFB7918460837BD4680BDC500002008
S11337E0C40000200000014080B483B000AF034651
S11337F0FB7197F90730002B0BDBFB7903F01F02F9
S1133800074997F907305B09012000FA02F241F8F1
S1133810232000BF0C37BD465DF8047B704700BF12
S113382000E100E080B483B000AF0346FB7197F978
S11338300730002B0CDBFB7903F01F02074997F9D3
S113384007305B09012000FA02F2603341F82320BB
S113385000BF0C37BD465DF8047B704700E100E013
S113386080B400AF054B1B69044A23F004031361C1
S113387030BF00BFBD465DF8047B704700ED00E03B
S113388080B483B000AF78607B68094A934203D068
S11338907B68084A934202D14FF0FF3301E04FF6B0
S11338A0FF7318460C37BD465DF8047B704700BFB4
S11338B000A0014000A4014080B584B000AFF860CE
S11338C0B9607A60F868FFF7DBFFFA68BB68063313
S11338D01B01134404337A681A6000BF1037BD46D5
S11338E080BD80B483B000AF78607B685B6A1846A3
S11338F00C37BD465DF8047B704780B483B000AFDD
S1133900786039607B683A685A6100BF0C37BD46FD
S11339105DF8047B704780B483B000AF7860396091
S11339207B689A693B68DB431A407B689A6100BFF5
S11339300C37BD465DF8047B704780B483B000AF9C
S1133940786039607B689A693B681A437B689A613E
S113395000BF0C37BD465DF8047B704780B483B06C
S113396000AF78607B68DB6818460C37BD465DF8AD
S1133970047B704780B582B000AF786039607868A6
S1133980FFF77EFF7B683A68DA6100BF0837BD46FF
S113399080BD0000F0B589B000AF07F10C03002230
S11339A01A605A609A601A7301233B733B460022E3
S11339B01A605A609A600223BB7101213548FEF7F0
S11339C01BFB4FF6FF713448FFF7D4FF3B461A4602
S11339D000213148FEF73CFF0023BB7307F10C03C1
S11339E019462D48FEF7C6FE2C48FEF76BFB02462F
S11339F02B4B1A602A4B1B68BA7BD340284A1360AE
S1133A00BB7B0133DBB2BB73BB7B0A2B04D8244BD7
S1133A101B68244A9342E1D82348FEF753FB02462D
S1133A20224BB3FBF2F3FB611D4B1B6819464FF0AD
S1133A300002FB694FF0000403FB02F501FB04F0F4
S1133A402844A1FB03340219144619494FF000021B
S1133A505D1844EB020628463146164A4FF000032F
S1133A6000F0E2F803460C461A46134B1A60134B57
S1133A7000221A7010210848FFF74DFF0B20FFF7B2
S1133A80D1FE0B20FFF7B0FE002318462437BD46B5
S1133A90F0BD00BF00020400008001404041050069
S1133AA0C800002080841E007000020000B0710B6A
S1133AB020A1070040420F00CC000020D0000020CD
S1133AC0F0B585B000AF7860214B1B6819464FF004
S1133AD000027B684FF0000403FB02F501FB04F0D5
S1133AE02844A1FB0334021914461A494FF000027A
S1133AF05D1844EB020628463146174A4FF000038E
S1133B0000F092F803460C46C7E902340DE04FF684
S1133B10E85000F041F8D7E9023410494FF0FF3281
S1133B205D1844EB0206C7E90256D7E902344FF6A2
S1133B30E8514FF00002A24208BF9942E7D33B8903
S1133B40184600F029F8002318461437BD46F0BD86
S1133B50C800002020A1070040420F001802FFFF08
S1133B6080B582B000AF0A48FFF7F8FE78607B6842
S1133B7003F01003002B06D010210548FFF7BDFE0B
S1133B80044B01221A7000BF0837BD4680BD00BF38
S1133B9000800140D000002080B586B000AF03460D
S1133BA0FB80FB88002B35D0FEF766FC78611B4850
S1133BB0FFF797FE01461A4B1B683B61FB88FB81AC
S1133BC0FA893B69934238BF13460B449BB2BB60EE
S1133BD0BA6800211148FFF76FFE10210F48FFF764
S1133BE08CFE10210D48FFF7A8FE7869FEF754FCFF
S1133BF001E0FFF735FE0B4B1B78DBB283F00103CA
S1133C00DBB2002BF5D1074B00221A7010210348B8
S1133C10FFF781FE00BF1837BD4680BD008001401C
S1133C20CC000020D000002053B94AB9002908BFB5
S1133C3000281CBF4FF0FF314FF0FF3000F072B985
S1133C40ADF1080C6DE904CE00F006F8DDF804E0EF
S1133C50DDE9022304B070472DE9F047089E0446CD
S1133C608846002B4BD18A42154667D9B2FA82F2B4
S1133C704AB1C2F1200701FA02F320FA07F795408E
S1133C8047EA030894404FEA154E230CB8FBFEF7AD
S1133C901FFA85FC0EFB178843EA084307FB0CF167
S1133CA0994209D9EB1807F1FF3080F01B81994242
S1133CB040F21881023F2B445B1AA4B2B3FBFEF01E
S1133CC00EFB103344EA034400FB0CFCA44509D961
S1133CD02C1900F1FF3380F00781A44540F20481E0
S1133CE002382C4440EA0740A4EB0C0400271EB120
S1133CF0D4400023C6E900433946BDE8F0878B422F
S1133D0009D9002E00F0EB800027C6E900013846EF
S1133D103946BDE8F087B3FA83F7002F47D18B42C9
S1133D2002D3824200F2FA80841A61EB0303012079
S1133D309846002EE0D0C6E90048DDE702B9FFDE70
S1133D40B2FA82F2002A40F08F80491B4FEA154EE6
S1133D501FFA85F80127B1FBFEFC230C0EFB1C1196
S1133D6043EA014308FB0CF1994207D9EB180CF123
S1133D70FF3002D2994200F2CD808446591AA3B290
S1133D80B1FBFEF00EFB101443EA044408FB00F8F8
S1133D90A04507D92C1900F1FF3302D2A04500F247
S1133DA0B6801846A4EB080440EA0C409FE7C7F12C
S1133DB0200CBB4022FA0CFE4EEA030E01FA07F473
S1133DC020FA0CF521FA0CF34FEA1E482543B3FB05
S1133DD0F8F92C0C08FB19331FFA8EFA44EA034352
S1133DE009FB0AF49C4202FA07F200FA07F10BD924
S1133DF01EEB030309F1FF3080F087809C4240F200
S1133E008480A9F1020973441B1BADB2B3FBF8F023
S1133E1008FB103345EA034400FB0AFAA24508D91B
S1133E201EEB040400F1FF336BD2A24569D90238BA
S1133E30744440EA0940A0FB0289A4EB0A044C45FF
S1133E40C2464B4654D351D0002E69D0B1EB0A057B
S1133E5064EB030404FA0CFCFD40FC404CEA050549
S1133E60C6E90054002747E7C2F1200320FA03F70C
S1133E70954001FA02F021FA03F34FEA154E384354
S1133E80010CB3FBFEF71FFA85F80EFB173341EA6A
S1133E90034107FB08F38B4204FA02F407D96918BB
S1133EA007F1FF3C2FD28B422DD9023F2944CB1A74
S1133EB081B2B3FBFEF00EFB103341EA034100FB79
S1133EC008F38B4207D9691800F1FF3C17D28B42E3
S1133ED015D902382944C91A40EA07473BE737464F
S1133EE0304609E70746E7E61846FBE64145ABD20C
S1133EF0B8EB020A69EB0E0201381346A4E76046E8
S1133F00E9E7184695E76746D1E781467CE702383A
S1133F102C4447E7ACF1020C2B442FE7384608E762
S1133F203746E9E6704700BF0028B8BF40427047F3
S1133F3008B5074B044613B10021AFF30080054BCD
S1133F401868836A03B198472046FFF710FA00BF48
S1133F5000000000F8D2000070B50D4E0D4CA41BFB
S1133F60A4100025A54209D10B4E0C4C01F0ECF92C
S1133F70A41BA4100025A54205D170BD56F8253018
S1133F8098470135EEE756F8253098470135F2E7B2
S1133F908000002080000020800000208400002099
S1133FA010B5431E0A44914200D110BD11F8014BD3
S1133FB003F8014FF7E702440346934200D17047E8
S1133FC003F8011BF9E700000FB40A4B13B51C6892
S1133FD024B1A36913B9204600F0E6F905AB049AAD
S1133FE0A1680193204600F0F7FC02B0BDE8104040
S1133FF004B070471C0000202DE9F7431D46514BC7
S11340001E6804460F46904626B1B36913B930467C
S113401000F0CAF94C4B9C4252D17468B8F1020FBB
S113402006D0B8F1010F00F28980002DC0F286801D
S11340302146304600F04EF9616B41B104F144036E
S1134040994202D0304600F0A5FA002363630023AE
S1134050A3616360A3891B0603D52169304600F080
S113406099FAA38923F44A6323F00303B8F1020FF6
S1134070A3815DD001AB6A462146304600F01EFAAA
S1134080A3891843A0812DBB009D284600F07AFA2D
S1134090074600284ED1DDF80090A9453CD14FF0E9
S11340A0FF30A38943F00203A3810023A36004F13A
S11340B04703236023610123636103B0BDE8F083F8
S11340C0224B9C4201D1B468A8E7214B9C4208BF13
S11340D0F468A3E7002FD8D0B36913B9304600F0D1
S11340E063F9B8F1010F08BFA389276004BF43F047
S11340F00103A381A38913F00800C4E904751BD04C
S113410013F0010018BF6D424FF000031DBFA36000
S1134110A5611846A560D0E7484600F033FA074683
S11341200028BCD0A38943F08003A3814D46D3E784
S11341300020B6E7A946F5E7A060BEE74FF0FF30E0
S1134140BBE700BF1C0000201CD300003CD30000D0
S1134150FCD2000030B5141E05469BB0184605DAA3
S11341608B232B604FF0FF301BB030BD4FF4027334
S1134170ADF80C3014BF04F1FF33234602930593CA
S11341804FF6FF7300910491ADF80E3002461E9B6A
S11341906946284600F000FB431CBCBF8B232B6000
S11341A0002CE1D0009B00221A70DDE707B50093D4
S11341B013460A46014603480068FFF7CBFF03B0E5
S11341C05DF804FB1C0000208A892DE9F0410546B6
S11341D010070C4658D44B68002B05DC0B6C002BE5
S11341E002DC0020BDE8F081E66A002EF9D000234D
S11341F012F480522F68216A2B6032D0606DA3893B
S11342005A0705D56368C01A636B0BB1236CC01AD7
S113421000230246E66A216A2846B047431CA38964
S113422006D129681D2948D8294ACA40D60744D549
S113423000226260D9042269226004D5421C01D1A3
S11342402B6803B96065616B2F600029C9D004F144
S11342504403994202D0284600F09CF90020606390
S1134260C0E701232846B047411CC8D12B68002B66
S1134270C5D01D2B01D0162B01D12F60B1E7A38926
S113428043F04003A381ADE70F69002FA9D0930742
S11342900E6808BF4B690F6018BF0023A6EB070820
S11342A08B60B8F1000F9CDD43463A46216AA66A4A
S11342B02846B047002806DCA38943F04003A381C5
S11342C04FF0FF308EE70744A8EB0008E9E700BF92
S11342D00100402038B50B6905460C46DBB118B126
S11342E083690BB900F060F80C4B9C4209D16C68EF
S11342F0B4F90C307BB121462846BDE83840FFF7BD
S113430063BF074B9C4201D1AC68F1E7054B9C426B
S113431008BFEC68ECE7002038BD00BF1CD30000E8
S11343203CD30000FCD20000002310B50446C0E9D1
S11343300033836081814366C281C0E904338361B1
S1134340194608225C30FFF736FE054B6362054BC5
S1134350A362054BE362054B2462236310BD00BFD7
S1134360314F0000534F00008B4F0000AF4F00004F
S1134370014900F085B800BFD542000070B54A1E5F
S1134380682555430E4605F1740100F051F90446C1
S113439040B10021C0E900160C30A06005F16802AC
S11343A0FFF709FE204670BD836910B5044633BB90
S11343B0C0E912330365124B124A1B6882629842A9
S11343C004BF0123836100F01FF86060204600F001
S11343D01BF8A060204600F017F80022E0600421DA
S11343E06068FFF7A1FF01220921A068FFF79CFF85
S11343F002221221E068FFF797FF0123A36110BD99
S1134400F8D2000071430000F8B51B4B1E68B36975
S1134410074613B93046FFF7C7FF4836D6E90134DB
S1134420013B03D5336833B13668F7E7B4F90C5070
S11344306DB16834F4E704213846FFF79FFF30601C
S11344400028F1D10C233B6004462046F8BD0B4BF9
S11344506566C4E90055A560C4E90335C4E905559A
S11344600822294604F15C00FFF7A5FDC4E90D55B7
S1134470C4E91255E9E700BFF8D200000100FFFFCC
S11344802DE9F8438046894600F14804002614B912
S11344903046BDE8F883D4E90175013F01D52468AD
S11344A0F5E7AB89012B07D9B5F90E30013303D0F9
S11344B029464046C84706436835EEE770B50E46C0
S11344C0B1F90E10002996B014461D4607DA0023F0
S11344D02B60B3891A0610D44FF480630EE06A4649
S11344E000F04CFE0028F2DB019A02F47042A2F5BF
S11344F000535A425A412A60EEE7402300202360C9
S113450016B070BD8B8973B59D0706460C4607D55A
S113451004F14703236023610123636102B070BD8A
S113452001AB6A46FFF7CAFF00990546304600F022
S11345307FF848B9B4F90C309A05EFD423F003039B
S113454043F00203A381E3E70D4BB362A389206028
S113455043F08003A381009B6361019B20615BB1F5
S1134560B4F90E10304600F01BFE28B1A38923F0E5
S1134570030343F00103A381A3891D43A581CDE770
S113458071430000024B0146186800F051B800BFA7
S11345901C00002038B50546002945D051F8043CDC
S11345A00C1F002BB8BFE41800F08BFE1F4A1368E1
S11345B0104633B9636014602846BDE8384000F003
S11345C081BEA3420CD921686218934204BF1A68C1
S11345D05B68636004BF521822600460ECE7134612
S11345E05A680AB1A242FAD919685818A0420BD1E4
S11345F020680144581882421960DDD1106852685D
S11346005A6001441960D7E702D90C232B60D3E721
S1134610206821188A4204BF11685268626004BF8E
S1134620091821605C60C7E738BD00BFD4000020D2
S113463070B5CD1C25F0030508350C2D38BF0C25AD
S1134640002D064601DBA94203D90C233360002068
S113465070BD00F036FE214A1468214691B9204C01
S113466023681BB9304600F053FC206029463046CD
S113467000F04EFC431C24D10C233360304600F080
S113468021FEE4E70B685B1B18D40B2B0FD90B60DE
S1134690CD50CC18304600F015FE04F10B00231D5C
S11346A020F00700C31AD3D05A42E250D0E78C421C
S11346B04B6816BF636013600C46EBE70C46496811
S11346C0CCE7C41C24F00304A04205D0211A3046D0
S11346D000F01EFC0130CFD02560DBE7D4000020C1
S11346E0D80000202DE9F0478E689E4282460C4691
S11346F09046994637D88A8912F4906F31D025684C
S113470009696F1A6569022305EB450595FBF3F505
S113471009F101033B449D4238BF1D46530530D582
S11347202946FFF785FF064650B90C23CAF8003026
S1134730A38943F04003A3814FF0FF30BDE8F08725
S11347403A462169FFF72CFCA38923F4906343F0D4
S11347508003A381266165613E44ED1B2660A5604C
S11347604E464E4500D94E4632464146206800F03A
S11347708FFDA3689B1BA36023681E442660002052
S1134780DCE72A4600F09FFD06460028E2D12169B5
S11347905046FFF7FFFEC8E72DE9F04F9DB0804675
S11347A003938B891D060C4616460FD50B696BB90E
S11347B04021FFF73DFF2060206128B90C23C8F891
S11347C000304FF0FF30C7E04023636100230993BA
S11347D020238DF8293030238DF82A304FF0010B37
S11347E037463D4615F8013B0BB1252B3ED1B7EBBF
S11347F0060A0BD05346324621464046FFF772FF65
S1134800013000F0A480099B534409933B78002BAA
S113481000F09D8000234FF0FF32CDE9052304937F
S113482007938DF853301A932F46052217F8011B6E
S11348304F4800F0DDFC049BD0B9D90644BF2022C8
S11348408DF853201A0744BF2B228DF853202A7861
S11348502A2A15D0079A2F4600200A25394611F82E
S1134860013B303B092B4DD9B8B10FE02F46B8E7D7
S11348703F4A801A0BFA00F0184304903D46D3E7F0
S1134880039A111D12680391002A01DB079204E0C8
S1134890524243F00203079204933B782E2B0CD12F
S11348A07B782A2B33D1039B1A1D1B680392002BA0
S11348B0B8BF4FF0FF33023705932E4D39780322EA
S11348C0284600F095FC38B14023401B03FA00F061
S11348D0049B034301370493397827488DF8281043
S11348E006227E1C00F084FC002838D0234B13BB26
S11348F0039B073323F0070308330393099B4B44BB
S113490009936DE705FB023201200F46A6E7002359
S11349100137059319460A25384610F8012B303A19
S1134920092A03D9002BC8D00591C6E705FB01214C
S113493001230746F0E703AB00932246104B04A97A
S11349404046AFF30080B0F1FF3F8146D6D1A38942
S11349505B063FF536AF09981DB0BDE8F08F03AB99
S113496000932246064B04A9404600F0BFF9EAE74B
S11349705CD3000062D3000066D300000000000096
S1134980E54600009368013B002B10B4936008DAFD
S11349909469A34201DB0A2903D15DF8044B00F0BA
S11349A00BBB1368581C1060197008465DF8044B63
S11349B07047F8B506460F461446D518AC4201D1E7
S11349C0002007E03A4614F8011B3046FFF7DAFFEF
S11349D0431CF3D1F8BD00002DE9F04F9DB00C4607
S11349E017460393064618B183690BB9FFF7DCFC3D
S11349F07B4B9C4257D17468A38918075DD5236902
S1134A00002B5AD00023099320238DF8293030231A
S1134A108DF82A304FF0010BB846454615F8013B96
S1134A200BB1252B54D1B8EB070A0BD053463A46A9
S1134A3021463046FFF7BDFF013000F0C280099BDC
S1134A405344099398F80030002B00F0BA800023F7
S1134A504FF0FF32CDE90523049307938DF85330CB
S1134A601A93A846052218F8011B5E4800F0C0FB03
S1134A70049B78BBD90644BF20228DF853201A0723
S1134A8044BF2B228DF853202A782A2A2AD0079A49
S1134A90A84600200A25414611F8013B303B092B6A
S1134AA069D960B324E0504B9C4201D1B468A3E7B8
S1134AB04E4B9C4208BFF4689EE72146304600F006
S1134AC0DFFA00289ED04FF0FF301DB0BDE8F08F14
S1134AD0A846A2E7434A801A0BFA00F01843049050
S1134AE04546BEE7039A111D12680391002A01DBB3
S1134AF0079204E0524243F002030792049398F8A9
S1134B0000302E2B0ED198F801302A2B38D1039B7C
S1134B101A1D1B680392002BB8BF4FF0FF3308F136
S1134B2002080593324D98F800100322284600F03D
S1134B305FFB40B14023401B03FA00F0049B034396
S1134B4008F10108049398F800102A488DF82810F9
S1134B50062208F1010700F04BFB002837D0264B52
S1134B601BBB039B073323F0070308330393099B01
S1134B704B44099350E705FB0232012088468AE73B
S1134B80002308F10108059319460A25404610F848
S1134B90012B303A092A03D9002BC3D00591C1E770
S1134BA005FB012101238046F0E703AB0093224675
S1134BB0124B04A93046AFF30080B0F1FF3F8146A9
S1134BC0D5D1A3895B063FF57EAF09987DE703AB9A
S1134BD000932246094B04A9304600F087F8ECE71D
S1134BE01CD300005CD300003CD30000FCD20000C6
S1134BF062D3000066D3000000000000B349000047
S1134C002DE9F04791461F468A680B69DDF820803C
S1134C109342B8BF1346C9F8003091F843200646C2
S1134C200C4612B10133C9F800302368990642BF1B
S1134C30D9F800300233C9F80030256815F00605AC
S1134C4007D104F1190AE368D9F800209B1AAB4292
S1134C5028DC94F843302268003318BF01239206FD
S1134C602DD404F1430239463046C047013020D0E8
S1134C702368E568D9F8002003F00603042B08BF75
S1134C80AD1AA36822690CBF25EAE5750025934295
S1134C90C4BF9B1AED184FF000091A344D451AD1C0
S1134CA0002008E00123524639463046C04701300F
S1134CB003D14FF0FF30BDE8F0870135C3E7E118B9
S1134CC05A1C302081F84300224494F8451082F89D
S1134CD043100233C5E70123224639463046C04714
S1134CE00130E6D009F10109D8E700002DE9F043CD
S1134CF001F1430C0C46097E85B06E291746064621
S1134D0098460C9A00F0B38022D8632936D00AD88A
S1134D10002900F0B980582900F0838004F142058D
S1134D2084F8421032E0642901D06929F6D1206860
S1134D301368050603F104012AD51B681160002BD2
S1134D4003DA2D225B4284F843206F480A2239E0BB
S1134D50732900F09D8008D86F2920D07029DDD1F7
S1134D60236843F02003236003E0752917D07829D2
S1134D70D4D1782384F84530644855E01368191D6C
S1134D801B68116004F1420584F8423001238CE071
S1134D901B68116010F0400F18BF1BB2CFE71368F7
S1134DA02568181D1060280601D51B6802E06806F6
S1134DB0FBD51B8854486F2914BF0A2208220021FE
S1134DC084F843106568A560002DC0F295802168C1
S1134DD021F004012160002B3DD1002D40F08E8094
S1134DE06546082A0BD12368DB0708D52369626866
S1134DF09A42DEBF302305F8013C05F1FF35ACEBE8
S1134E0005032361CDF800803B4603AA21463046C2
S1134E10FFF7F6FE01304DD14FF0FF3005B0BDE88D
S1134E20F083394884F84510136821681D1D1B68F8
S1134E3015600A060BD5CA0744BF41F02001216062
S1134E401BB9226822F0200222601022B7E74D0627
S1134E5048BF9BB2EFE76546B3FBF2F102FB1133A7
S1134E60C35C05F8013D0B460029F5D1B9E7136889
S1134E7025686169181D106028061B6801D5196032
S1134E8002E06A06FBD51980002323616546B9E771
S1134E901368191D11601D6862680021284600F01E
S1134EA0A7F908B1401B606063682361002384F89C
S1134EB04330A7E723692A4639463046C0470130C4
S1134EC0AAD023689B0713D4E068039B9842B8BF19
S1134ED01846A3E701234A4639463046C047013005
S1134EE09AD00135E368039A9B1AAB42F2DCEBE7F4
S1134EF0002504F11909F5E7002BACD1037884F8F7
S1134F00423004F142056CE76DD300007ED300000B
S1134F1038B5064C0023054608462360FEF780FAA0
S1134F20431C02D1236803B12B6038BD80140020D8
S1134F3010B50C46B1F90E1000F0ECF90028ABBF27
S1134F40636DA3891B1823F48053ACBF6365A381ED
S1134F5010BD2DE9F0411F468B89DB0505460C4643
S1134F60164605D502230022B1F90E1000F028F9E7
S1134F70A389B4F90E1023F48053A38132463B462F
S1134F802846BDE8F04100F069B810B50C46B1F907
S1134F900E1000F015F9431CA38915BF606523F4B6
S1134FA0805343F48053A38118BFA38110BDB1F98A
S1134FB00E1000F0D3B80000F8B50E4614460546AE
S1134FC018B183690BB9FFF7EFF9214B9C422AD141
S1134FD06C68A369A360A3891A072ED5236963B3F8
S1134FE023692068C01A6369F6B28342374604DC39
S1134FF021462846FFF76EF928BBA368013BA3604E
S113500023685A1C22601E7063690130834204D0F5
S1135010A389DB0719D50A2E17D121462846FFF7A5
S113502059F990B10FE00B4B9C4201D1AC68D0E729
S1135030094B9C4208BFEC68CBE72146284600F0A8
S11350401FF80028CCD04FF0FF373846F8BD00BF1A
S11350501CD300003CD30000FCD2000038B5074C40
S1135060054608461146002222601A46FEF7F8F962
S1135070431C02D1236803B12B6038BD8014002087
S1135080324B70B51D6806460C4625B1AB6913B9A1
S11350902846FFF789F92E4B9C420FD16C68B4F96E
S11350A00C309AB215072CD4D00611D409223260E0
S11350B043F04003A3814FF0FF303EE0254B9C4278
S11350C001D1AC68EBE7244B9C4208BFEC68E6E7EF
S11350D0510712D5616B41B104F14403994202D0E6
S11350E03046FFF757FA00236363A38923F02403B0
S11350F0A3810023636023692360A38943F0080329
S1135100A38123694BB9A38903F42073B3F5007F0A
S113511003D021463046FFF7F5F9A28912F00103C6
S11351200CD00023A36063695B42A361236953B974
S1135130B4F90C3013F08000BAD170BD920758BF97
S11351406369A360F2E70020F7E700BF1C000020BA
S11351501CD300003CD30000FCD2000038B5064C40
S11351600023054608462360FEF7F6F8431C02D1E7
S1135170236803B12B6038BD8014002038B5074C78
S113518000230546084611462360FEF7F5F8431C44
S113519002D1236803B12B6038BD00BF8014002006
S11351A038B5064C0023054608462360FEF7F4F89C
S11351B0431C02D1236803B12B6038BD8014002046
S11351C038B5074C054608461146002222601A46A7
S11351D0FEF7EDF8431C02D1236803B12B6038BD00
S11351E08014002000000000000000000000000007
S11351F001F0FF01102A2BDB10F0070F08D010F884
S1135200013B013A8B422DD010F0070F42B3F6D187
S1135210F0B441EA012141EA014122F007047FF0A0
S113522000070023F0E80256083C85EA010586EAF7
S1135230010685FA47F5A3FA87F586FA47F6A5FA33
S113524087F68EB9EED1F0BC01F0FF0102F007023F
S113525032B110F8013B013A83EA010313B1F8D1EA
S11352600020704701387047002D06BF35460338CB
S1135270073815F0010F07D1013015F4807F02BF04
S1135280013015F4C03F0130F0BC0138704700BF55
S1135290884210B501EB020307D8421E99420AD096
S11352A011F8014B02F8014FF8E78342F5D9811850
S11352B0D21AD34200D110BD13F8014D01F8014DAB
S11352C0F7E770477047F8B5074614460E4621B90C
S11352D01146BDE8F840FFF7ABB922B9FFF75AF918
S11352E025462846F8BD00F027F8A0420FD22146F3
S11352F03846FFF79DF905460028F2D0314622468C
S1135300FEF74EFE31463846FFF744F9E9E73546E5
S1135310E7E7000038B5074C054608461146002269
S113532022601A46FEF750F8431C02D1236803B1E9
S11353302B6038BD8014002051F8043C181F002B4A
S1135340BCBF0B58C0187047F8B500BFF8BC08BC08
S11353509E467047F8B500BFF8BC08BC9E4670472F
S113536000000000003E5B4F5B3E3E6B4F6B3E1CFB
S11353703E7C3E1C183C7E3C181C577D571C1C5E12
S11353807F5E1C00183C1800FFE7C3E7FF001824E9
S11353901800FFE7DBE7FF30483A060E2629792993
S11353A026407F050507407F05253F5A3CE73C5AC8
S11353B07F3E1C1C08081C1C3E7F14227F22145FA5
S11353C05F005F5F06097F017F006689956A606000
S11353D060606094A2FFA29408047E040810207EFA
S11353E0201008082A1C08081C2A08081E1010107F
S11353F0100C1E0C1E0C30383E3830060E3E0E06C5
S1135400000000000000005F000000070007001417
S11354107F147F14242A7F2A1223130864623649D6
S11354205620500008070300001C224100004122BE
S11354301C002A1C7F1C2A08083E080800807030C3
S11354400008080808080000606000201008040232
S11354503E5149453E00427F400072494949462138
S113546041494D331814127F1027454545393C4AAC
S113547049493141211109073649494936464949C3
S1135480291E00001400000040340000000814220B
S11354904114141414140041221408020159090679
S11354A03E415D594E7C1211127C7F494949363E7A
S11354B0414141227F4141413E7F494949417F0960
S11354C00909013E414151737F0808087F00417F6B
S11354D041002040413F017F081422417F40404069
S11354E0407F021C027F7F0408107F3E4141413E01
S11354F07F090909063E4151215E7F091929462683
S11355004949493203017F01033F4040403F1F2086
S113551040201F3F4038403F63140814630304785D
S113552004036159494D43007F414141020408107D
S113553020004141417F04020102044040404040B8
S1135540000307080020545478407F284444383826
S113555044444428384444287F3854545418000898
S11355607E090218A4A49C787F0804047800447D72
S113557040002040403D007F1028440000417F400F
S1135580007C047804787C08040478384444443863
S1135590FC1824241818242418FC7C080404084843
S11355A05454542404043F44243C4040207C1C2094
S11355B040201C3C4030403C44281028444C9090EF
S11355C0907C4464544C4400083641000000770049
S11355D000004136080002010204023C2623263C56
S11355E01EA1A161123A4040207A385454555921E1
S11355F055557941225454784221555478402054C9
S11356005579400C1E527212395555555939545416
S1135610545939555454580000457C410002457D85
S1135620420001457C407D1211127DF0282528F0AE
S11356307C545545002054547C547C0A097F4932DB
S1135640494949323A4444443A324A4848303A4152
S113565041217A3A42402078009DA0A07D3D4242FB
S1135660423D3D4040403D3C24FF2424487E494384
S1135670662B2FFC2F2BFF0929F620C0887E0903F7
S113568020545479410000447D413048484A32381E
S11356904040227A007A0A0A727D0D19317D26294A
S11356A0292F28262929292630484D402038080842
S11356B0080808080808382F10C8ACBA2F10283476
S11356C0FA00007B000008142A142222142A140869
S11356D05500550055AA55AA55AAFF55FF55FF0078
S11356E00000FF00101010FF00141414FF0010102D
S11356F0FF00FF1010F010F0141414FC001414F741
S113570000FF0000FF00FF1414F404FC141417102D
S11357101F10101F101F1414141F00101010F0007D
S11357200000001F101010101F10101010F01000B7
S11357300000FF101010101010101010FF100000C7
S113574000FF140000FF00FF00001F10170000FC02
S113575004F414141710171414F404F40000FF00D4
S1135760F714141414141414F700F714141417145D
S113577010101F101F141414F4141010F010F00063
S1135780001F101F0000001F14000000FC14000084
S1135790F010F01010FF10FF141414FF1410101068
S11357A01F00000000F010FFFFFFFFFFF0F0F0F01B
S11357B0F0FFFFFF0000000000FFFF0F0F0F0F0FAF
S11357C03844443844FC4A4A4A347E0202060602FB
S11357D07E027E0263554941633844443C04407E62
S11357E0201E2006027E020299A5E7A5991C2A49DB
S11357F02A1C4C7201724C304A4D4D303048784866
S113580030BC625A463D3E494949007E0101017E51
S11358102A2A2A2A2A44445F444440514A444040A4
S1135820444A51400000FF0103E080FF00000808E3
S11358306B6B083612362436060F090F0600001863
S1135840180000001010003040FF0101001F01018A
S11358501E00191D1712003C3C3C3C0000000000D7
S113586001C700000CD7D69D2C9B00003A1A0000FB
S11358703B0800003250AA55AA11000000000000A5
S1135880000000000000000000FFFF1F00000000F7
S11358900000000032101818081818080000000052
S11358A00000000000000000001314441200000077
S11358B000000000436865636B202D320A0000007D
S11358C0436865636B202D330A00000043686563F9
S11358D06B202D350A000000436865636B202D376B
S11358E00A000000FFFFFFFFFFFFFFFFFFFFFFFFB6
S11358F0FFFFFE1FFFFFFFFFFFFFFFFFFFFFFFFF95
S1135900FFFFFFFFFFFFFFFFFFFFFFFE00FFFFFFA3
S1135910FFFFFFFFFFFFFFFFFFFFFFFFFFFF800011
S113592000000003FE00FFFFFFFFFFFFFFFFFFFF7C
S1135930FFFFFFFFFFFFFF800000000001FFC0FF2B
S1135940FFFFFFFFFFFFFFFFFFFFFFFFFFFFFFFF63
S1135950800000000001FFC3FFFFFFFFFFFFFFFF08
S1135960FFFFFFFFFFFFFFFFFFFFFFFFFFFFFFFF43
S11359700FFFFFFFFFFFFFFFFFFFFFFFFFFFFFFF23
S1135980FFFFFFFFFFFFFFFFFE00FFFFFFFFFFFF23
S1135990FFFFFFFFFFFFFFFFFFFFFFFFFFFFFFFF13
S11359A0FFFE00FFFFFFFFFFFFFFFFFFFFFFFFFF03
S11359B0FFFFFFFFFFFFFFFFFFFFFF80FFFFFFFF72
S11359C0FFFFFFFFFFFFFFFFFFFFFFFFFFFFFFFFE3
S11359D0FFFFFFFFC1FFFFFFFFFFFFFFFFFFFFFF11
S11359E0FFFFFFFFFFFFFFFFFFFFFFFFFE07FFFFBC
S11359F0FFFFFFFFFFFFFFFFFFFFFFFFFFFFFFFFB3
S1135A00FFFFFFFFFFFE3FFFFFFFFFFFFFFFFFFF63
S1135A10FFFFFFFFFFFFFFFFFFFFFFFFFFFFFEFF93
S1135A20FFFFFFFFFFFFFFFFFFFFFFFFFFFFFFFF82
S1135A30FFFFFFFFFFFFFFFFFFFFFFFFFFFFFFFF72
S1135A40FFFFFFFFFFFFFFFFFFFFFFFFFFFFFFFF62
S1135A50FE07FFFFFFFFFFFFFFFFFFFFFFFFFFFF4B
S1135A60FFFFFFFF80FFC0000FFE00FFFFFFFFFFEF
S1135A70FFFFFFFFFFFFFFFFFFFFFFFFFE003F8071
S1135A80000FFE00FFFFFFFFFFFFFFFFFFFFFFFF11
S1135A90FFFFFFFFFFF8001F80000FFFE1FFFFFF84
S1135AA0FFFFFFFFFFFFFFFFFFFFFFFFFFFFF00010
S1135AB00F80000FFF87FFFFFFFFFFFFFFFFFFFFC8
S1135AC0FFFFFFFFFFFFFFF0180F83FF0FFE0FFF25
S1135AD0FFFFFFFFFFFFFFFFFFFFFFFFFFFFFFFFD2
S1135AE0E07F078FFF0FFE00FFFFFFFFFFFFFFFFB9
S1135AF0FFFFFFFFFFFFFFFFFFE1FF878FFF0FFEA9
S1135B0000FFFFFFFFFFFFFFFFFFFFFFFFFFFFFFA0
S1135B10FFFFE1FFC78FFF0FFFE0FFFFFFFFFFFF66
S1135B20FFFFFFFFFFFFFFFFFFFFFFC3FFC78FFF65
S1135B300FFF83FFFFFFFFFFFFFFFFFFFFFFFFFFDD
S1135B40FFFFFFFFC3FFC78FFF0FFE0FFFFFFFFF26
S1135B50FFFFFFFFFFFFFFFFFFFFFFFFFFC7FFC7C1
S1135B6087FF1FFE3FFFFFFFFFFFFFFFFFFFFFFF5A
S1135B70FFFFFFFFFFFFC7C7C787FE1FFFFFFFFF32
S1135B80FFFFFFFFFFFFFFFFFFFFFFFFFFFFFFC759
S1135B90C7C783FC1FFE7FFFFFFFFFFFFFFFFFFF61
S1135BA0FFFFFFFFFFFFFFFFC7C7C7C0001FFE01C6
S1135BB0FFFFFFFFFFFFFFFFFFFFFFFFFFFFFFFFF1
S1135BC0FFC3C007C0003FFE00FFFFFFFFFFFFFF52
S1135BD0FFFFFFFFFFFFFFFFFFFFC3C007E0007FE2
S1135BE0FE00FFFFFFFFFFFFFFFFFFFFFFFFFFFFC1
S1135BF0FFFFFFE3C007F001FFFFE3FFFFFFFFFF2D
S1135C00FFFFFFFFFFFFFFFFFFFFFFFFE3C007FCF6
S1135C1007FFFF87FFFFFFFFFFFFFFFFFFFFFFFF00
S1135C20FFFFFFFFFFFFFFFFFFFFFFFE0DFFFFFF73
S1135C30FFFFFFFFFFFFFFFFFFFFFFFFFFFFFFFF70
S1135C40FFFFFFFFFE00FFFFFFFFFFFFFFFFFFFF60
S1135C50FFFFFFFFFFFFFFFFFFFFFFFFFFFE00FF50
S1135C60FFFFFFFFFFFFFFFFFFFFFFFFFFFFFFFF40
S1135C70FFE7FFFE000FFFE0FFFFFFFFFFFFFFFF57
S1135C80FFFFFFFFFFFFFFFFFFFF007F80000FFF0D
S1135C9003FFFFFFFFFFFFFFFFFFFFFFFFFFFFFF0C
S1135CA0FFFFFC003F80000FFE0FFFFFFFFFFFFF21
S1135CB0FFFFFFFFFFFFFFFFFFFFFFF8001F800054
S1135CC00FFE7FFFFFFFFFFFFFFFFFFFFFFFFFFF51
S1135CD0FFFFFFFFF0000F80001FFFFCFFFFFFFF2F
